:020000040000fa
:080000000002040000000000f2
:020000040000fa
:100008009a0200009a0200009a0200009a02000078
:100018009a0200009a0200009a0200009a02000068
:100028009a0200009a0200009a02000010040000e0
:100038009a0200009a0200009a0200009a02000048
:100048009a0200009a0200009a0200009a02000038
:100058009a0200009a0200009a0200009a02000028
:100068009a0200009a0200009a020000ea030000c7
:100078009a0200009a0200009a0200009a02000008
:100088009a0200009a0200009a0200009a020000f8
:100098009a0200009a0200009a0200009a020000e8
:1000a8009a0200009a0200009a0200009a020000d8
:1000b8009a0200009a0200009a0200009a020000c8
:1000c8009a0200009a0200009a0200009a020000b8
:1000d8009a0200009a0200009a0200009a020000a8
:1000e8009a0200009a0200009a0200009a02000098
:1000f8009a0200009a0200009a0200009a02000088
:100108009a0200009a0200009a0200009a02000077
:100118009a0200009a0200009a0200009a02000067
:100128009a0200009a0200009a0200009a02000057
:100138009a0200009a0200009a0200009a02000047
:100148009a0200009a0200009a0200009a02000037
:100158009a0200009a0200009a0200009a02000027
:100168009a0200009a0200009a0200009a02000017
:100178009a0200009a0200009a0200009a02000007
:100188009a0200009a0200009a0200009a020000f7
:100198009a0200009a0200009a0200009a020000e7
:1001a8009a0200009a0200009a0200009a020000d7
:1001b8009a0200009a0200009a0200009a020000c7
:1001c8009a0200009a0200009a0200009a020000b7
:1001d8009a0200009a0200009a0200009a020000a7
:1001e8009a0200009a0200009a0200009a02000097
:0801f8009a0200009a020000c7
:020000040000fa
:100208009a0200009a0200009a0200009a02000076
:100218009a0200009a0200009a0200009a02000066
:100228009a0200009a0200009a02000010040000de
:100238009a0200009a0200009a0200009a02000046
:100248009a0200009a0200009a0200009a02000036
:100258009a0200009a0200009a0200009a02000026
:100268009a0200009a0200009a020000ea030000c5
:100278009a0200009a0200009a0200009a02000006
:100288009a0200009a0200009a0200009a020000f6
:100298009a0200009a0200009a0200009a020000e6
:1002a8009a0200009a0200009a0200009a020000d6
:1002b8009a0200009a0200009a0200009a020000c6
:1002c8009a0200009a0200009a0200009a020000b6
:1002d8009a0200009a0200009a0200009a020000a6
:1002e8009a0200009a0200009a0200009a02000096
:1002f8009a0200009a0200009a0200009a02000086
:100308009a0200009a0200009a0200009a02000075
:100318009a0200009a0200009a0200009a02000065
:100328009a0200009a0200009a0200009a02000055
:100338009a0200009a0200009a0200009a02000045
:100348009a0200009a0200009a0200009a02000035
:100358009a0200009a0200009a0200009a02000025
:100368009a0200009a0200009a0200009a02000015
:100378009a0200009a0200009a0200009a02000005
:100388009a0200009a0200009a0200009a020000f5
:100398009a0200009a0200009a0200009a020000e5
:1003a8009a0200009a0200009a0200009a020000d5
:1003b8009a0200009a0200009a0200009a020000c5
:1003c8009a0200009a0200009a0200009a020000b5
:1003d8009a0200009a0200009a0200009a020000a5
:1003e8009a0200009a0200009a0200009a02000095
:0803f8009a0200009a020000c5
:020000040000fa
:100400006f8020000e7f22000e0188000000000097
:10041000000020000000e000020032000001200087
:10042000200288000c000700c04b200001002000c3
:1004300011000700000020000000e0000200320070
:100440000000020000000000920302000000000013
:100450000040da000000fe004440a9000000200037
:100460000000e0000300320000002000a00188002e
:100470004440a80000000600910188008000780038
:100480000000eb0015003700e280400032a0b4000d
:100490009101ba00e280400032a0b4009102ba009b
:1004a000e280400032a0b4000002eb00472bde00e7
:1004b000f507b200602ce10004003a000059eb009f
:1004c0008301e900fdff3e00040037006128e100e0
:1004d000010032000082eb00040007001101ba00a5
:1004e0000200e000e8ff3a00000006003159ba00bf
:1004f0008301e9000c0032002159ba008301e900b0
:10050000080032000400e00003003a00e2804000ee
:1005100032a0b400f5ff370011d9ba008301e90019
:10052000faff3a008100e800e180400032a0b40008
:0c053000000006000040da000000fe00a1
:020000040000fa
:10053c000000fa000002eb00044088004400200098
:10054c002440880040002000e50007000080fa00ed
:10055c00000006000000fa000002eb0004408800d6
:10056c00540020002440880050002000dc000700cc
:10057c000080fa00000006000000fa000002eb0008
:10058c0004408800640020002440880060002000a3
:10059c00d30007000080fa00000006000000fa00fb
:1005ac000002eb0004408800740020002440880006
:1005bc0070002000ca0007000080fa00000006004e
:1005cc000000fa005516800004022000048262002c
:1005dc00e00f520003003200940020001440880009
:1005ec000500370005408000047d2000848f5200f8
:1005fc0001003600044080000080fa000000060074
:10060c000000fa0005408000047d2000848f520019
:10061c001800360024408000e40f520003003a001a
:10062c00740020001440880029003700244080000a
:10063c00e50f520003003a004400200014408800eb
:10064c002300370024408000e60f520003003a00dc
:10065c0054002000144088001d0037002440800006
:10066c00e70f52001a003a00640020001440880082
:10067c001700370024408000e40f520003003a00ba
:10068c0054002000144088001100370024408000e2
:10069c00e50f520003003a0064002000144088006b
:1006ac000b00370024408000e60f520003003a0094
:1006bc00740020001440880005003700244080009e
:1006cc00e70f520002003a0044002000144088005a
:1006dc000080fa00000006000000fa0004408000d0
:1006ec000402e80004408800551680000402200033
:1006fc0004826200e00f520003003a0084002000e4
:10070c001440880002003700940020001440880038
:10071c000080fa00000006000000fa0050000700fc
:10072c0061000700590007004400200014408800b5
:10073c004400200024408800010037000000000025
:10074c00144080006123b900c4ff2f00f5ff2f0077
:10075c000602420087824a00660020000700200043
:10076c00860f5200878f5a00f4ff3e000460010090
:10077c000600370007003700080037000900370073
:10078c000a0037000b0037000c00370068ff070029
:10079c000c0037006fff07000a00370076ff0700d8
:1007ac00080037007dff07000600370084ff0700b4
:1007bc000400370092ff070002003700c6ff070055
:1007cc0000000000deff3700801f7800849fbe0011
:1007dc003400f80000002000a00188000000fa009e
:1007ec008660a90055168000040220000482620075
:1007fc00e00f520002003a008400200014408800f0
:10080c000080fa003400f9004f02be004f0078005f
:10081c0000400600801f7800849fbe003400f80062
:10082c0000002000a00188000000fa008460a900ec
:10083c00551680000402200004826200e00f520072
:10084c0002003a00a4002000144088000080fa0046
:10085c003400f9004f02be004f0078000040060043
:10086c000000fa00c9e2a900c9c2a900c9a2a900e6
:10087c00c982a900cde2a800cdc2a800cda2a800d3
:10088c00cd82a8000080fa00000006000000fa00eb
:10089c00c8a2a8008660a9009660a8006360a800a2
:1008ac000080fa00000006000200fa008403200019
:1008bc00040f78001e0278001408880024088000b9
:1008cc000440a0000450a000240888009460a800f4
:1008dc008460a90005e1a8000080fa000000060071
:1008ec000200fa00000f78001e027800e40f52009c
:1008fc0005003a00cde2a900cdc2a800cda2a80007
:10090c00cd82a800170037001e027800e50f5200b8
:10091c0005003a00cde2a800cdc2a900cda2a800e6
:10092c00cd82a8000f0037001e027800e60f52009f
:10093c0005003a00cde2a800cdc2a800cda2a900c6
:10094c00cd82a800070037001e027800e70f520086
:10095c0004003a00cde2a800cdc2a800cda2a800a8
:0c096c00cd82a9000080fa000000060007
:020000040000fa
:100978000008000006000000000000000000000061
:020000040000fa
:020000040001f9
:0457f800ad7b000085
:020000040000fa
:020000040001f9
:0457fc003f3f00002b
:00000001FF
